{
  "contractName": "SimpleStorage",
  "abi": [
    {
      "inputs": [],
      "name": "read",
      "outputs": [
        {
          "internalType": "uint256",
          "name": "",
          "type": "uint256"
        }
      ],
      "stateMutability": "view",
      "type": "function",
      "constant": true
    },
    {
      "inputs": [
        {
          "internalType": "uint256",
          "name": "newValue",
          "type": "uint256"
        }
      ],
      "name": "write",
      "outputs": [],
      "stateMutability": "nonpayable",
      "type": "function"
    },
    {
      "inputs": [],
      "name": "increment",
      "outputs": [],
      "stateMutability": "nonpayable",
      "type": "function"
    }
  ],
  "bytecode": "0x608060405234801561001057600080fd5b506101df806100206000396000f3fe608060405234801561001057600080fd5b50600436106100415760003560e01c80632f048afa1461004657806357de26a414610062578063d09de08a14610080575b600080fd5b610060600480360381019061005b91906100ef565b61008a565b005b61006a610094565b604051610077919061012b565b60405180910390f35b61008861009d565b005b8060008190555050565b60008054905090565b60016000546100ac9190610175565b600081905550565b600080fd5b6000819050919050565b6100cc816100b9565b81146100d757600080fd5b50565b6000813590506100e9816100c3565b92915050565b600060208284031215610105576101046100b4565b5b6000610113848285016100da565b91505092915050565b610125816100b9565b82525050565b6000602082019050610140600083018461011c565b92915050565b7f4e487b7100000000000000000000000000000000000000000000000000000000600052601160045260246000fd5b6000610180826100b9565b915061018b836100b9565b92508282019050808211156101a3576101a2610146565b5b9291505056fea2646970667358221220ac4aab3428401c5b3802a95af8d372a016c6e531eba5427c23b07aa3d85282b664736f6c63430008120033",
  "immutableReferences": {},
  "source": "// SPDX-License-Identifier: MIT\npragma solidity >=0.4.22 <0.9.0;\n\ncontract SimpleStorage {\n  uint256 value;\n\n  function read() public view returns (uint256) {\n    return value;\n  }\n\n  function write(uint256 newValue) public {\n    value = newValue;\n  }\n\n  function increment() public {\n    value=value+1;\n  }\n\n}\n",
  "sourcePath": "D:\\Blockchain course code\\react\\truffle\\contracts\\SimpleStorage.sol",
  "compiler": {
    "name": "solc",
    "version": "0.8.18+commit.87f61d96.Emscripten.clang"
  },
  "schemaVersion": "3.4.12",
  "updatedAt": "2023-03-04T16:27:15.302Z",
  "networkType": "ethereum",
  "devdoc": {
    "kind": "dev",
    "methods": {},
    "version": 1
  },
  "userdoc": {
    "kind": "user",
    "methods": {},
    "version": 1
  }
}